S0130000627574746F6E5F756172742E737265635A
S113000012C019C018C017C016C015C014C013C040
S113001012C011C010C00FC00EC00DC00CC00BC068
S11300200AC009C008C011241FBECFE5D4E0DEBF5A
S1130030CDBF20D036C0E4CF989904C0989BFECFA2
S113004081E30895999904C0999BFECF82E30895B2
S11300509A9904C09A9BFECF83E308959B9904C0A8
S11300609B9BFECF84E3089580E308955D9BFECFC0
S11300708CB9089510BC83E389B91BB886E880BDA8
S113008088E08AB914BA15BAD7DF9FEC980F943078
S1130090D8F7ECDF87EA91E60197F1F700C000009A
S10900A0F3CFF894FFCF3A
S9030000FC
